:020000040800F2
:10000000003000205D230008172300081923000892
:100010001B2300081D2300081F2300080000000008
:100020000000000000000000000000002123000884
:1000300023230008000000002523000827230008D0
:10004000AD230008AD230008AD230008AD23000850
:10005000AD230008AD230008AD230008AD23000840
:10006000AD230008AD230008AD230008AD23000830
:10007000AD230008AD230008AD230008AD23000820
:10008000AD230008AD23000831230008AD2300088C
:10009000AD230008AD230008AD230008AD23000800
:1000A000AD230008AD230008AD230008AD230008F0
:1000B000AD230008AD23000800000000AD230008B8
:1000C000AD2300080000000000000000AD23000880
:1000D00000000000AD230008AD230008AD23000898
:1000E000AD230008AD230008000000000000000060
:1000F0000000000000000000000000000000000000
:1001000000000000000000000000000000000000EF
:100110000000000000000000AD230008AD2300082F
:1001200000000000000000000000000000000000CF
:1001300000000000000000000000000000000000BF
:10014000AD230008AD23000800000000AD23000827
:10015000AD230008AD230008AD230008AD2300083F
:10016000AD230008AD2300080000000000000000DF
:10017000000000000000000000000000000000007F
:0801800000000000AD2300089F
:1001880010B5054C237833B9044B13B10448AFF3C9
:1001980000800123237010BD0C0000200000000027
:1001A8000824000808B5034B1BB103490348AFF303
:1001B800008008BD0000000010000020082400088E
:1001C800034613F8012B002AFBD1181A013870478F
:1001D80010B504460E4B18784FF47A73B3FBF0F35E
:1001E8000C4A1068B0FBF3F000F076FF68B90F2CEA
:1001F80001D901200AE0002221464FF0FF3000F02B
:1002080029FF034B5C60002000E0012010BD00BF07
:10021800000000200800002008B5074A136843F0D2
:1002280010031360032000F003FF0020FFF7D0FF46
:1002380002F01EF8002008BD00200240034A1168A1
:10024800034B1B780B441360704700BF2800002045
:1002580000000020014B1868704700BF28000020EC
:1002680038B50446FFF7F6FF0546B4F1FF3F02D064
:10027800044B1B781C44FFF7EDFF401BA042FAD348
:1002880038BD00BF0000002070477047704738B580
:100298000268936803F00303012B01D0002038BDE6
:1002A800136813F0010F2FD0936803F00D03012B8F
:1002B80009D0036C43F010030364436C43F001035B
:1002C80043640120EBE70446936843F0020393601C
:1002D800036803221A60FFF7BDFF054623689B6881
:1002E80013F0010F0ED0FFF7B5FF401B0228F5D918
:1002F800236C43F010032364636C43F001036364CD
:100308000120CCE70020CAE70020C8E703689A6804
:1003180012F00C0F61D070B50446DA6812F0007F55
:1003280004D0008B40F20112904242D060290CD0D8
:1003380023689A6812F0040F07D09A6812F0020F27
:1003480003D19A6842F010029A600C290CD02368F5
:100358009A6812F0080F07D09A6812F0020F03D1BA
:100368009A6842F020029A60602932D06C292ED116
:100378000C25FFF76FFF064623689B682B422AD09F
:10038800FFF768FF801B0B28F6D9236C43F0100396
:100398002364636C43F00103636401201CE0236C55
:1003A80043F010032364636C43F00103636401208A
:1003B80012E00022196811F0400F04D108498A425E
:1003C800EDD80132F6E740221A600C21B0E7042587
:1003D800CFE70825CDE7002070BD0020704700BF9B
:1003E800FF93090038B50268936803F00303012BF3
:1003F8000DD09168184B19420FD0036C43F01003CD
:100408000364436C43F001034364012038BD13685F
:1004180013F0010FEDD00020F8E70446936843F08D
:1004280001039360FFF716FF054623681B6813F066
:10043800010F0ED1FFF70EFF401B0228F5D9236CE0
:1004480043F010032364636C43F0010363640120E9
:10045800DCE70020DAE700BF3F00008030B597B046
:1004680000230193002800F0F7800446036C13F082
:10047800100F52D1036CABB1002023689A6812F0B8
:10048800805F03D09B6813F0005F47D0236C23F094
:10049800120343F010032364636C43F001036364A5
:1004A80001203BE04364C364836480F83C3001F07E
:1004B800F7FE23689B6813F0805F01D00020DCE71B
:1004C8002046FFF7E4FE236C13F0100FD5D1002867
:1004D800D3D1236C23F4885323F0020343F002039F
:1004E80023642268936823F04053936022689368DA
:1004F80043F080539360594B1B68594AA2FB03236E
:100508009B0C03EB83035A00019202E0019B013B21
:100518000193019B002BF9D1AFE70020236C13F066
:10052800100F40F09080002840F08D8023689A6872
:1005380012F0040240F08780216C21F4817141F0AF
:1005480002012164B3F1A04F54D04FF0A0410291B1
:10055800996801F0030101294FD0029B23B19968E2
:1005680001F0030101294DD03E498B6823F4403343
:1005780065682B438B60617E4B03656B012D01D051
:100588004FF480521343E2681343A268134394F86C
:100598002020012A3BD0A26A012A02D0E16A0A433C
:1005A80013432268916811F00C0F0CD1D16821F423
:1005B800804121F00201D160217E94F83020520060
:1005C80042EA813213432168CD68274A2A401343FF
:1005D800CB602369012B2DD02268136B23F00F0306
:1005E800136300236364236C23F0030343F00103C4
:1005F80023642FE01D490291AAE71B6813F0010F3D
:10060800B9D1AAE71B6813F0010FB4D1ACE731B92F
:10061800626A013A43EA424343F48033BBE7226CFF
:1006280022F0220242F020022264626C42F00102AF
:100638006264B0E721680B6B23F00F03E269013AAB
:1006480013430B63CDE7236C23F0120343F010032D
:100658002364012017B030BD0120FBE7080000200B
:1006680083DE1B430003005007C0F0FF0001005069
:1006780003689B6813F0040F72D190F83C30012B8B
:1006880071D010B50446012380F83C30FFF7AAFE6C
:10069800034600285FD1226C22F4706222F0010226
:1006A80042F480722264314A926812F01F0F17D008
:1006B8002168B1F1A04F13D0226C42F48012226459
:1006C8002B4A91421BD14FF0A042D26812F0007F12
:1006D80015D0226C22F4405242F4805222640EE07B
:1006E800226C22F4801222642268D26812F0007F01
:1006F80005D0226C22F4405242F480522264226CCB
:1007080012F4805F24D0626C22F006026264002238
:1007180084F83C2022681C211160144A926812F067
:100728001F0F0FD0114A926802F01F02052A09D044
:100738000E4A926802F01F02092A03D02268B2F119
:10074800A04F0BD121688A6842F004028A6005E054
:1007580000226264DBE7002284F83C20184610BDC2
:100768000223184670470223FBE700BF000300502E
:100778000001005090F83C30012B1DD010B5044604
:10078800012380F83C306C21FFF7C0FD034620B1FF
:10079800002284F83C20184610BD2046FFF777FD5C
:1007A80003460028F4D1226C22F4885222F0010278
:1007B80042F001022264EBE702231846704700006A
:1007C8002DE9F0414369082B24D0414B9B6813F075
:1007D8001F0F0FD10368DB6813F0010F01D10C263E
:1007E80019E0036C43F020030364002380F83C30D5
:1007F800012068E0364B9B6813F4404F01D10C266A
:1008080009E0036C43F020030364002380F83C30C4
:10081800012058E008262E4B9B6813F01F0F07D0C5
:100828000368B3F1A04F03D04FF0A043DF6801E0A5
:100838000368DF680D460446FFF70CFD8046236811
:100848001A68324212D1B5F1FF3FF8D02DB1FFF747
:1008580001FDA0EB0800A842F1D9236C43F0040382
:100868002364002384F83C3003202CE0226C42F4FB
:1008780000722264DA6812F4406F1FD117F4005F27
:100888001CD11A6812F0080F18D09A6812F0040FD9
:100898000CD1226C22F480722264226C12F4805FE4
:1008A8000CD1226C42F00102226407E0226C42F073
:1008B80020022264626C42F00102626417F4804FE5
:1008C80003D11E600020BDE8F0810020FBE700BFD7
:1008D800000300500368186C7047704770477047F2
:1008E8007047000010B5044603681A6812F0040F38
:1008F80003D05A6812F0040F07D11A6812F0080FD3
:1009080052D05A6812F0080F4ED0226C12F0100F15
:1009180003D1226C42F400722264A34A926812F056
:100928001F0F12D0A04A926802F01F02052A0CD0AD
:100938009D4A926802F01F02092A06D0B3F1A04F1F
:1009480003D04FF0A042D16800E0D968DA6812F409
:10095800406F23D111F4005F20D11A6812F0080FFC
:100968001CD09A6812F0040F10D15A6822F00C02B9
:100978005A60236C23F480732364236C13F4805F20
:100988000CD1236C43F00103236407E0236C43F08C
:1009980010032364636C43F0010363642046FFF78C
:1009A80073FC23680C221A6023681A6812F0200F5F
:1009B80003D05A6812F0200F07D11A6812F0400FBE
:1009C80071D05A6812F0400F6DD0226C42F4005278
:1009D8002264754A926812F01F0F12D0724A926808
:1009E80002F01F02052A0CD06F4A926802F01F021B
:1009F800092A06D0B3F1A04F03D04FF0A042D16826
:100A080000E0D968DA6C12F0C00F09D011F0007F4D
:100A180043D1DA6812F4406F3FD111F4005F3CD142
:100A28001A6812F0400F38D05F4A926812F01F0F10
:100A380012D05D4A926802F01F02062A0CD05A4A68
:100A4800926802F01F02072A06D0B3F1A04F03D024
:100A58004FF0A042D26800E0DA6812F4001F1CD1FF
:100A68009A6812F0080F10D15A6822F060025A6092
:100A7800236C23F480532364236C13F4807F0CD1FC
:100A8800236C43F00103236407E0236C43F0100355
:100A98002364636C43F0010363642046FFF71DFF82
:100AA800236860221A6023681A6812F0800F03D046
:100AB8005B6813F0800F3ED123681A6812F4807FB8
:100AC80003D05B6813F4807F40D123681A6812F45E
:100AD800007F03D05B6813F4007F43D123681A6852
:100AE80012F0100F1DD05A6812F0100F19D0626B57
:100AF800012A08D02C4A926812F01F0F3ED1DB68F9
:100B080013F0010F0AD0236C43F480632364636CF1
:100B180043F0020363642046FFF7B8FB2368102202
:100B28001A6023681A6812F4806F03D05A6812F4A6
:100B3800806F29D110BD236C43F480332364204691
:100B4800FFF7A3FB236880221A60B5E7236C43F400
:100B5800003323642046FFF7C2FE23684FF48072F7
:100B68001A60B2E7236C43F4802323642046FFF71E
:100B7800B7FE23684FF400721A60AFE70A4B9B6810
:100B880013F4404FCAD0BEE7226C42F4804222647C
:100B9800626C42F0080262644FF480621A60204678
:100BA800FFF79CFEC6E700BF0003005030B496B0C4
:100BB8000022019290F83C20012A00F0A48103460B
:100BC800012280F83C200068826812F0040F40F08F
:100BD8008F814A68042A31D8046B02EB420255001F
:100BE8001F22AA4024EA02020C68AC402243026396
:100BF8001868826812F00C0F68D10A68092A4ED961
:100C0800846902EB42021E3A0725954024EA05044E
:100C18008D6805FA02F22243826148691C68E2681D
:100C2800C2F3C102520000FA02F20869013803282F
:100C380000F28B80DFE800F04068737E092A0ED846
:100C4800446B02EB420255001E3D1F22AA4024EAD3
:100C580002020C6804FA05F52A434263C8E70E2A23
:100C68000ED8846B02EB420255003C3D1F22AA407D
:100C780024EA02020C6804FA05F52A438263B7E7FE
:100C8800C46B02EB420255005A3D1F22AA4024EAD7
:100C980002020C6804FA05F52A43C263A8E744690E
:100CA80002EB42020725954024EA05048D6805FAFF
:100CB80002F222434261B0E7206E944D0540086875
:100CC80042EA8062154345F0004525661868826847
:100CD80002F00302012A6BD0CA68012A6ED0D0F84C
:100CE800B0200D680124AC4022EA0402C0F8B0200C
:100CF8000A68102A00F08B80112A00F0A980122AB5
:100D080000F0AC800020F8E0606E804D0540086877
:100D180042EA8062154345F000456566D6E7A06E55
:100D28007A4D0540086842EA8062154345F000455F
:100D3800A566CBE7E56E754828400D6842EA8562EE
:100D4800024342F00042E266C0E7226E02F0F84237
:100D58000868B2EB806F1CD01868426E02F0F84247
:100D68000C68B2EB846F19D01868826E02F0F842F2
:100D78000C68B2EB846F16D01868C26E02F0F842A5
:100D88000C68B2EB846FA1D1C26E22F00042C26639
:100D98009CE7226E22F000422266DDE7426E22F0D6
:100DA80000424266E0E7826E22F000428266E3E794
:100DB800026812F0010F8FD000209EE0D0F8B0201A
:100DC8000D680124AC402243C0F8B0200A68092A03
:100DD8000ED91D68A86902EB42021B3A0724944009
:100DE80020EA04008C6804FA02F20243AA617FE751
:100DF8001D686869013202EB42020724944020EA28
:100E080004008C6804FA02F202436A6170E7404900
:100E1800896811F4000F7FF46FAF1868B0F1A04F24
:100E280023D04FF0A0410291816801F0030101290C
:100E38001ED0029921B18C6804F00304012C21D042
:100E4800102A24D0112A42D0122A4AD0002054E075
:100E58002F49896811F0807FDFD050E72C498968D5
:100E680011F4800FD9D0002047E02A490291DBE72E
:100E7800016811F0010FDCD01A6C42F020021A64EC
:100E880001203AE0096811F0010FF5D1D8E7B0F177
:100E9800A04FD7D11E498A6842F400028A601E4AD0
:100EA8001268A1F14E61A1F58421A1F27D41A1FB57
:100EB8000212920C02EB82025100019102E0019AA7
:100EC800013A0192019A002AF9D1002015E0B0F107
:100ED800A04FB9D10E498A6842F080728A6000201A
:100EE8000BE00B498A6842F480028A60002004E023
:100EF8001A6C42F020021A640120002283F83C2078
:100F080016B030BC70470220FAE700BF00F0FF833C
:100F180000030050000100500800002070B495B094
:100F280003460268B2F1A04F3AD04FF0A0400090BB
:100F38000098002873D093F83C40012C71D001240C
:100F480083F83C40926812F0040F5DD1826812F079
:100F5800040F59D10A68002A31D0334DAA6822F407
:100F680060424C6893F8306044EA46342243AA60F1
:100F78001C68A26802F00302012A14D0826802F0F9
:100F88000302012A15D0284CA26822F4716222F0CB
:100F98000F020868896801430A43A260002038E00C
:100FA80022480090C4E7226812F0010FE6D0002022
:100FB8002FE0026812F0010FE5D0002029E01A495D
:100FC8008A6822F460428A6019688A6802F003021B
:100FD800012A0DD0826802F00302012A0ED01249BC
:100FE8008A6822F4716222F00F028A60002010E001
:100FF8000A6812F0010FEDD000200AE0026812F032
:10100800010FECD0002004E01A6C42F020021A64B0
:101018000120002283F83C2015B070BC70470120E5
:10102800FAE70220F8E700BF000300500001005073
:10103800074AD36823F4E0631B041B0C000200F486
:10104800E060184340F0BF6040F40030D060704763
:1010580000ED00E030B4174BDB68C3F30223C3F1A3
:101068000704042C28BF04241D1D062D18D9033B92
:101078004FF0FF3505FA04F421EA0401994005FA16
:1010880003F322EA0303194300280BDB0901C9B261
:1010980000F1604000F5614080F8001330BC7047F3
:1010A8000023E5E700F00F000901C9B2024B19540B
:1010B800F4E700BF00ED00E014ED00E0002807DBD6
:1010C80000F01F02400901239340024A42F82030F1
:1010D800704700BF00E100E00138B0F1807F0AD21C
:1010E800064B5860064AF02182F8231000209860C9
:1010F80007221A6070470120704700BF10E000E027
:1011080000ED00E0F0B482B0002336E0032400E0F4
:101118000024B4403C430235584E46F82540584C0C
:101128002568D44304EA05064F6817F4803F01D0C8
:1011380042EA0506524D2E606D6804EA05064F68BE
:1011480017F4003F01D042EA05064D4D6E60AD68C8
:1011580004EA05064F6817F4801F01D042EA050625
:10116800474DAE60ED682C404E6816F4001F01D064
:1011780042EA0504424AD46001330A6832FA03F4A9
:1011880078D001249C402240F6D04D68022D01D031
:10119800122D10D1DE08083650F826C003F00705D6
:1011A800AF000F25BD402CEA050C0D69BD4045EA8E
:1011B8000C0540F8265006685F000325BD40ED4346
:1011C80005EA060C4E6806F00306BE4046EA0C0621
:1011D80006604E6806F1FF3CBCF1010F03D9112EE1
:1011E80001D0122E10D1866805EA060CCE68BE40E2
:1011F80046EA0C068660466826EA04044E68C6F38A
:1012080000169E4026434660C46825408C68BC4052
:101218002C43C4604C6814F0805FADD0194CA569AC
:1012280045F00105A561A46904F001040194019C3D
:101238009D08AE1C114C54F8267003F00304A60058
:101248000F24B44027EA0407B0F1904F3FF460AF91
:101258000D4CA0420AD004F58064A04208D004F5E1
:101268008064A0423FF452AF052452E7012450E7BE
:1012780002244EE702B0F0BC704700BF00000140F6
:1012880000040140001002400004004803691942AC
:1012980001D100207047012070470AB98162704768
:1012A8008161704743690B4201D18161704709042C
:1012B80081617047002800F00D8370B582B0044644
:1012C800036813F0010F3BD0B54B5B6803F00C03C8
:1012D800042B1ED0B24B5B6803F00C03082B13D011
:1012E8006368B3F5803F68D0002B40F0928003F12B
:1012F800804303F504331A6822F480321A601A68AE
:1013080022F480221A605DE0A54B5B6813F4803FED
:10131800E6D04FF4003393FAA3F3A14B19684FF4C6
:10132800003393FAA3F3B3FA83F303F01F03012204
:1013380002FA03F30B4203D06368002B00F0CC825F
:10134800236813F0020F00F0C680954B5B6813F01A
:101358000C0F00F09C80924B5B6803F00C03082B89
:1013680000F08F802369002B00F0F380012292FAAD
:10137800A2F3B3FA83F303F1845303F584139B00B8
:101388001A60FEF767FF0546022393FAA3F3844B1E
:101398001968022393FAA3F3B3FA83F303F01F0344
:1013A800012202FA03F30B4240F0C480FEF752FF19
:1013B800401B0228E8D9032095E2794A136843F4D0
:1013C80080331360764AD36A23F00F03A1680B4376
:1013D800D3626368002B36D0FEF73CFF05464FF416
:1013E800003393FAA3F36E4B19684FF4003393FA62
:1013F800A3F3B3FA83F303F01F03012202FA03F302
:101408000B429DD1FEF726FF401B6428E7D9032035
:1014180069E2B3F5A02F09D0614B1A6822F4803233
:101428001A601A6822F480221A60CBE703F180431D
:10143800A3F53C331A6842F480221A601A6842F411
:1014480080321A60BEE7FEF705FF05464FF4003309
:1014580093FAA3F3524B19684FF4003393FAA3F3AA
:10146800B3FA83F303F01F03012202FA03F30B42DA
:101478003FF466AFFEF7EEFE401B6428E6D9032072
:1014880031E2474B5B6813F4803F7FF46BAF022374
:1014980093FAA3F3424B1968022393FAA3F3B3FA1E
:1014A80083F303F01F03012202FA03F30B4204D073
:1014B8002369934201D0012015E23948036823F0DB
:1014C800F8036169F82292FAA2F2B2FA82F201FAFA
:1014D80002F213430360236813F0080F00F08C80B6
:1014E800A369002B60D0012191FAA1F2B2FA82F22D
:1014F8002C4B13449B001960FEF7ACFE05460223F3
:1015080093FAA3F293FAA3F293FAA3F2244A516A44
:1015180093FAA3F3B3FA83F303F01F03012202FA49
:1015280003F30B4268D1FEF795FE401B0228E6D96B
:101538000320D8E11A48036823F0F8036169F82208
:1015480092FAA2F2B2FA82F201FA02F213430360AB
:10155800C1E7012393FAA3F3B3FA83F303F18453A6
:1015680003F584139B0000221A60FEF773FE0546FC
:10157800022393FAA3F30A4B1968022393FAA3F3FD
:10158800B3FA83F303F01F03012202FA03F30B42B9
:10159800A1D0FEF75FFE401B0228E9D90320A2E193
:1015A8000010024020819010012292FAA2F2B2FAB1
:1015B80082F2BC4B13449B0000221A60FEF74AFEDD
:1015C8000546022393FAA3F293FAA3F293FAA3F23D
:1015D800B54A516A93FAA3F3B3FA83F303F01F03EE
:1015E800012202FA03F30B4206D0FEF733FE401B3A
:1015F8000228E6D9032076E1236813F0040F00F0EF
:10160800B380A94BDB6913F0805F20D1A64BDA6960
:1016180042F08052DA61DB6903F080530193019B49
:101628000125A24B1B6813F4807F12D0E368012BBD
:1016380023D073BB03F1804303F504331A6A22F005
:1016480001021A621A6A22F004021A621AE00025DC
:10165800E7E7964A136843F480731360FEF7FAFDD0
:101668000646924B1B6813F4807FDFD1FEF7F2FD2C
:10167800801B6428F5D9032035E18B4A136A43F0AF
:1016880001031362E368002B41D0FEF7E3FD064631
:101698002BE0052B09D0844B1A6A22F001021A624A
:1016A8001A6A22F004021A62ECE77F4B1A6A42F0C7
:1016B80004021A621A6A42F001021A62E2E77A4BDD
:1016C800196A022393FAA3F3B3FA83F303F01F030F
:1016D800012202FA03F3194245D1FEF7BBFD801B34
:1016E80041F28833984200F2F980022393FAA3F278
:1016F80093FAA3F3B3FA83F35B0943F00203022BD3
:10170800DDD0022393FAA3F3674B596AD9E7FEF7B2
:10171800A1FD064615E0644B196A022393FAA3F368
:10172800B3FA83F303F01F03012202FA03F3194209
:1017380019D0FEF78FFD801B41F28833984200F2E2
:10174800CF80022393FAA3F293FAA3F3B3FA83F3B5
:101758005B0943F00203022BDDD0022393FAA3F3C3
:10176800514B596AD9E7B5BBE369002B00F0BA8041
:101778004D4A526802F00C02082A00F09980022BA8
:101788002FD04FF0807393FAA3F3B3FA83F303F1E6
:10179800845303F584139B0000221A60FEF75AFD58
:1017A80004464FF0007393FAA3F33F4B19684FF0C8
:1017B800007393FAA3F3B3FA83F303F01F03012230
:1017C80002FA03F319426BD0FEF744FD001B02280E
:1017D800E7D9032087E0344AD36923F08053D361E3
:1017E800C2E74FF0807393FAA3F3B3FA83F303F1DC
:1017F800845303F584139B0000221A60FEF72AFD28
:1018080005464FF0007393FAA3F3274B19684FF07E
:10181800007393FAA3F3B3FA83F303F01F030122CF
:1018280002FA03F3194206D0FEF714FD401B022802
:10183800E7D9032057E01C494B6823F47413626A04
:10184800206A024313434B604FF0807393FAA3F36B
:10185800B3FA83F303F1845303F584139B00012245
:101868001A60FEF7F7FC04464FF0007393FAA3F3EF
:101878000D4B19684FF0007393FAA3F3B3FA83F38F
:1018880003F01F03012202FA03F3194206D1FEF7FF
:10189800E1FC001B0228E7D9032024E0002022E015
:1018A800002020E0208190100010024000700040CD
:1018B800012B1AD00F4B5B6803F48031226A9142E6
:1018C80001D001200FE003F47013626A93420ED036
:1018D800012008E001207047012004E0032002E015
:1018E800032000E0002002B070BD0120FBE70020CB
:1018F800F9E700BF0010024010B4174B5C6804F011
:101908000C03082B26D104F470124FF4701393FAC9
:10191800A3F3B3FA83F322FA03F31049C85C0E4B1E
:10192800DB6A03F00F030F2292FAA2F2B2FA82F2F4
:10193800D3400B441A7C14F4803F05D1084B03FBB9
:1019480000F05DF8044B7047064BB3FBF2F300FB65
:1019580003F0F6E70348F4E70010024020240008EB
:1019680000093D0000127A00002800F0C18070B51F
:101978000446614B1B6803F007038B420CD25E4A96
:10198800136823F007030B431360136803F007037E
:101998008B4201D0012070BD236813F0020F06D0DE
:1019A800564A536823F0F003A068034353600D467A
:1019B800236813F0010F5AD06368012B2DD0022B36
:1019C80040D0022292FAA2F24C4A1068022292FAFD
:1019D800A2F2B2FA82F202F01F02012101FA02F227
:1019E800104200F0878045494A6822F003021343F9
:1019F8004B60FEF72FFC0646404B5B6803F00C0378
:101A08006268B3EB820F32D0FEF724FC801B41F2F0
:101A180088339842F0D90320BDE74FF4003292FA98
:101A2800A2F2364A10684FF4003292FAA2F2B2FAE1
:101A380082F202F01F02012101FA02F20242D2D11F
:101A48000120A8E74FF0007292FAA2F22B4A106820
:101A58004FF0007292FAA2F2B2FA82F202F01F027A
:101A6800012101FA02F21042BDD1012093E7224B75
:101A78001B6803F00703AB420CD91F4A136823F015
:101A880007032B431360136803F00703AB4201D02D
:101A9800012080E7236813F0040F06D0174A536823
:101AA80023F4E063E1680B435360236813F0080FE5
:101AB80007D0124A536823F46053216943EAC103EB
:101AC8005360FFF719FF0D4B5B6803F0F003F0223A
:101AD80092FAA2F2B2FA82F2D340094AD35CD84011
:101AE800084B1860084B1868FEF772FB002052E795
:101AF8000120704701204EE70020024000100240FC
:101B0800602400080800002004000020F0B583B01D
:101B18000446036813F4803F44D0644BDB6913F038
:101B2800805F79D1614BDA6942F08052DA61DB6912
:101B380003F080530193019B01255D4B1B6813F44F
:101B4800807F6BD0594B1B6A13F4407321D06268B5
:101B580002F440729A421CD05448016A21F440763B
:101B68004FF4803393FAA3F2B2FA82F2514F3A4417
:101B780092004FF0010CC2F800C093FAA3F3B3FA35
:101B880083F33B449B0000221A60066211F0010FA8
:101B980058D1464A136A23F4407361680B431362B1
:101BA800002D7AD1236813F0010F06D03F4A136B3A
:101BB80023F00303A1680B431363236813F0200F7A
:101BC80006D03A4A136B23F01003E1680B43136302
:101BD800236813F0800F06D0344AD36A23F4F873CD
:101BE80021690B43D362236813F4805F06D02F4A20
:101BF800136B23F4807361690B431363236813F435
:101C0800804F51D0294A136B23F48053A1690B43A9
:101C18001363002003B0F0BD00258EE7244A136843
:101C280043F480731360FEF715FB0646204B1B68D0
:101C380013F4807F86D1FEF70DFB801B6428F5D94D
:101C48000320E7E7FEF706FB064614E0174B196A80
:101C5800022393FAA3F3B3FA83F303F01F030122D9
:101C680002FA03F30B4294D1FEF7F4FA801B41F217
:101C78008833984216D8022393FAA3F293FAA3F36F
:101C8800B3FA83F35B0943F00203022BDED002238D
:101C980093FAA3F3054B596ADAE7D36923F0805323
:101CA800D3617FE70320B5E70020B3E700100240C7
:101CB800007000400081901038B50446FEF7D8FC4B
:101CC8000A212046FEF77CFD2046FEF703FE054666
:101CD8002046FEF74FFD284638BD016000234360CB
:101CE80083607047B0F5967F94BF0020012070474D
:101CF80038B504466068FFF7F5FF68B9FEF7AAFA39
:101D08000546A368C31AB3F57A7FF3D92068FFF7AD
:101D1800D3FF6060A560EDE738BD38B50446FEF72F
:101D2800A7FC0A212046FEF74BFD2046FEF7D2FD10
:101D380005462046FEF71EFD284638BD01604FF4D3
:101D48007A73436000238360C36003617047B0F512
:101D5800967F94BF002001207047000038B50546E3
:101D6800FEF778FAA8600AE080211948FFF79AFA86
:101D7800EC600FE0AB68E41AB4F57A7F15D86868B0
:101D8800FFF7E5FFB8B1FEF765FA0446EB68C31A3A
:101D9800642BE9D82B69E31AB3F57A7FEAD9286866
:101DA800FFF7BBFF68602C61E4E701224021084887
:101DB800FFF773FAE3E7064C002240212046FFF7BD
:101DC8006CFA002280212046FFF767FA38BD00BF71
:101DD8000008004808B54FF480710248FFF756FA2A
:101DE80008BD00BF00080048002303704360704727
:101DF800B0FA80F04009704738B504462078FFF7FC
:101E0800F7FF60B1FEF726FA05466368C31AB3F513
:101E18007A7FF3D9FFF7DEFF20706560EEE738BD03
:101E2800F8B505460F46164600240DE02B6869688C
:101E380047FA04F202F0010231F8141053F82400B2
:101E4800FFF72BFA0134E4B2B442EFD30122A98A96
:101E58002869FFF722FA0120FEF702FA0022A98A70
:101E68002869FFF71AFAF8BD38B504460D4600226E
:101E780081898068FFF711FAA37D2BB108222946D2
:101E88002046FFF7CDFF38BD042225FA02F120468F
:101E9800FFF7C6FF042205F00F012046FFF7C0FF39
:101EA800F1E738B504460D46012281898068FFF7BD
:101EB800F4F9A37D2BB1082229462046FFF7B0FF8D
:101EC80038BD042225FA02F12046FFF7A9FF0422B3
:101ED80005F00F012046FFF7A3FFF1E710B5044610
:101EE800837D7BB13821FFF7BFFF01212046FFF733
:101EF800BBFF0C212046FFF7B7FF06212046FFF75E
:101F0800B3FF10BD3321FFF7AFFF32212046FFF7A3
:101F1800ABFF28212046FFF7A7FFE6E770B586B09C
:101F280006469DF834008DF81600BDF83000ADF86F
:101F380014000B980490BDF82800ADF80C0002932B
:101F4800019206AC44F8181D2046FFF7C7FF354636
:101F58000FCC0FC594E8030085E80300304606B0AF
:101F680070BD70B506460D46002405E0295D304673
:101F7800FFF797FF0134E4B22846FEF721F98442BF
:101F8800F4D370BD08B5044B595C1144C9B281F053
:101F98008001FFF769FF08BD4024000808B501214A
:101FA800FFF762FF08BD000030B589B00024039434
:101FB8000494059406940794174B5A6942F4002236
:101FC8005A615A6902F400220192019A5A6942F44C
:101FD80000325A615B6903F400330293029B0F4D90
:101FE8002246FF212846FFF758F9FF2303930123D0
:101FF80004930594069403A92846FFF783F84FF441
:102008008073039304940223059303A92846FFF7DA
:1020180079F809B030BD00BF001002400008004840
:1020280070B58AB000240794089409940194029426
:102038000394049405940694144D4FF0A0432B6028
:102048006C60AC602C616C7685F82040EC620126EF
:10205800AE62EC60EE6185F8304004236B612C764B
:102068006C632846FEF7FAF9079407A92846FEF795
:1020780055FF01960296049403940594069401A9C9
:102088002846FEF793FD0AB070BD00BF2C00002063
:1020980010B596B0202200210DA800F0A9F900245F
:1020A8000794089409940A940B9400940194029458
:1020B800039404940594069402230C93012210922D
:1020C8001022119213934FF4002315930CA8FFF7D5
:1020D800F1F80F230793089409940A940B94214666
:1020E80007A8FFF741FC802300934FF48073049303
:1020F8006846FFF70BFD16B010BD000080B59AB01A
:10210800FEF78AF8FFF7C4FFFFF74EFFFFF788FFD7
:102118004C4C16AF94E80F0087E80F0014AA10344F
:1021280094E8030082E80300474E00240394022346
:102138000293019601250095334639460EA8FFF70C
:10214800EDFE424F39460BA8FFF7C7FD394606A8F2
:10215800FFF7F4FD04A8FFF747FE224621460EA824
:10216800FFF710FF3A490EA8FFF7FBFE2246294663
:102178000EA8FFF707FF37490EA8FFF7F2FE0BA8D6
:10218800FFF7B6FD0EA8FFF709FF224621460EA865
:10219800FFF7F8FE30490EA8FFF7E3FE224629466E
:1021A8000EA8FFF7EFFE2D490EA8FFF7DAFE06A8E6
:1021B800FFF7D4FD2A4640213046FFF76EF8C820C5
:1021C800FEF74EF8224640213046FFF766F80EA883
:1021D800FFF7E4FE224621460EA8FFF7D3FE20496A
:1021E8000EA8FFF7BEFE224629460EA8FFF7CAFE34
:1021F8001C490EA8FFF7B5FE04A8FFF7FDFD2A4607
:1022080040213046FFF749F8C820FEF729F8224652
:1022180040213046FFF741F80EA8FFF7BFFE2246DF
:1022280021460EA8FFF7AEFE0F490EA8FFF799FE4C
:10223800224629460EA8FFF7A5FE0C490EA8FFF76F
:1022480090FEFEE748240008000800482C00002003
:10225800782400088824000894240008A024000892
:10226800B0240008C0240008C8240008D4240008AA
:1022780082B00A4B9A6942F001029A619A6902F0A7
:1022880001020092009ADA6942F08052DA61DB6951
:1022980003F080530193019B02B070470010024085
:1022A80000B589B00023039304930593069307931D
:1022B8000368B3F1A04F02D009B05DF804FB03F145
:1022C800704303F504335A6942F080525A615A69DF
:1022D80002F080520192019A5A6942F400325A611E
:1022E8005B6903F400330293029B012303930323E6
:1022F800049303A94FF09040FEF704FF0022114613
:102308001220FEF7A7FE1220FEF7D8FED4E770478A
:10231800FEE7FEE7FEE7FEE770477047704708B53F
:10232800FDF78CFF08BD000008B50248FEF7DAFA91
:1023380008BD00BF2C000020054BD3F8882042F4CC
:102348007002C3F888204FF000629A60704700BF9F
:1023580000ED00E0DFF834D0002103E00C4B5B58BF
:10236800435004310B480C4B42189A42F6D30B4A9F
:1023780002E0002342F8043B094B9A42F9D3FFF7E5
:10238800DBFF00F011F8FFF7B9FEFEE70030002090
:10239800E4240008000000200C0000200C000020AD
:1023A8007C000020FEE7000070B50D4E0D4CA41B0C
:1023B800A4100025A54209D10B4E0C4C00F020F8C2
:1023C800A41BA4100025A54205D170BD56F82530E0
:1023D80098470135EEE756F8253098470135F2E77A
:1023E800DC240008DC240008DC240008E0240008C1
:1023F80002440346934200D1704703F8011BF9E7F2
:10240800F8B500BFF8BC08BC9E467047F8B500BFD9
:08241800F8BC08BC9E467047A9
:1024200002030405060708090A0B0C0D0E0F101015
:102430000102030405060708090A0B0C0D0E0F1014
:1024400000401050004014540008004800080048A4
:1024500000080048000800480400080010002000A0
:102460000000000000000000010203040607080944
:10247000000000000102030450727A79676F746FE4
:1024800077616E7920646F00646961676E6F737441
:10249000796B69004368726F6E206C6173657200BE
:1024A00070727A65642073776961746C656D000081
:1024B0004E69736B6920706F7A696F6D0000000060
:1024C00062617465726969005A616A727A796A2018
:0C24D000706F6400707564656C6B6F00C9
:0424DC00AD01000846
:0424E0008901000866
:0C24E400010000001000000000127A004F
:040000050800235D6F
:00000001FF
