:020000040800F2
:1000000000300020B93D0008E13C0008ED3C00084C
:10001000F33C0008F93C0008FF3C00080000000029
:10002000000000000000000000000000053D000886
:10003000113D0008000000001D3D0008293D00089A
:10004000093E0008093E0008093E0008093E000874
:10005000093E0008093E0008093E0008093E000864
:10006000093E0008093E0008093E0008093E000854
:10007000093E0008093E0008093E0008093E000844
:10008000093E0008093E0008353D0008093E000809
:10009000093E0008093E0008093E0008093E000824
:1000A000093E0008093E0008093E0008093E000814
:1000B000093E0008093E000800000000093E000853
:1000C000093E00080000000000000000093E000892
:1000D00000000000093E0008093E0008093E000833
:1000E000093E0008093E0008000000000000000072
:1000F0000000000000000000000000000000000000
:1001000000000000000000000000000000000000EF
:100110000000000000000000093E0008093E000841
:1001200000000000000000000000000000000000CF
:1001300000000000000000000000000000000000BF
:10014000093E0008093E000800000000093E0008C2
:10015000093E0008093E0008093E0008093E000863
:10016000093E0008093E00080000000000000000F1
:10017000000000000000000000000000000000007F
:0801800000000000093E000828
:1001880010B5054C237833B9044B13B10448AFF3C9
:1001980000800123237010BD7000002000000000C3
:1001A8001C40000808B5034B1BB103490348AFF3D3
:1001B800008008BD00000000740000201C400008FA
:1001C800034613F8012B002AFBD1181A013870478F
:1001D80080B500AF084B1B68074A43F01003136053
:1001E800032001F0E7FB002000F008F803F00EFD03
:1001F8000023184680BD00BF0020024080B582B0B1
:1002080000AF7860124B1A68124B1B7819464FF4EE
:100218007A73B3FBF1F3B2FBF3F3184601F0FFFB7B
:100228000346002B01D001230EE07B680F2B0AD870
:10023800002279684FF0FF3001F0C7FB064A7B685F
:100248001360002300E0012318460837BD4680BD2F
:1002580008000020040000200000002080B400AF47
:10026800054B1B781A46054B1B681344034A136059
:1002780000BFBD4680BC7047040000208C000020F1
:1002880080B400AF024B1B681846BD4680BC70475F
:100298008C00002080B584B000AF7860FFF7F0FFD5
:1002A800B8607B68FB60FB68B3F1FF3F05D00A4B81
:1002B8001B781A46FB681344FB6000BFFFF7E0FF9A
:1002C8000246BB68D31AFA689A42F7D800BF00BF43
:1002D8001037BD4680BD00BF0400002080B483B045
:1002E80000AF786000BF0C37BD4680BC704780B453
:1002F80083B000AF786000BF0C37BD4680BC704744
:1003080080B483B000AF786000BF0C37BD4680BCB6
:100318007047000080B59AB000AF7860002387F876
:10032800673000233B660023BB607B68002B01D14C
:10033800012372E17B681B69002B7B681B6C03F04F
:100348001003002B76D17B681B6C002B52D17B6885
:1003580000225A647B680022DA647B6800229A646F
:100368007B68002283F83C20786803F071FC7B6886
:100378001B689B6803F08053002B3BD1786801F021
:100388003FF9034687F867307B681B6C03F010035E
:10039800002B2FD197F86730002B2BD17B681B6C73
:1003A80023F4885323F0020343F002027B681A64A3
:1003B8007B681B689A687B681B6822F040529A60C9
:1003C8007B681B689A687B681B6842F080529A6059
:1003D800944B1B68944AA2FB03239A0C13469B0078
:1003E80013445B00BB6002E0BB68013BBB60BB68B9
:1003F800002BF9D17B681B689B6803F08053002BA6
:1004080007D07B681B689B6803F00053B3F1005F5B
:1004180010D17B681B6C23F0120343F010027B6839
:100428001A647B685B6C43F001027B685A640123A1
:1004380087F867307B681B6C03F01003002B40F0D3
:10044800DF8097F86730002B40F0DA807B681B6804
:100458009B6803F00403002B40F0D2807B681B6C80
:1004680023F4817343F002027B681A646F4BFB65C7
:100478007B681B68B3F1A04F02D16D4BFB6002E0B3
:100488004FF0A043FB607B681B689B6803F0030385
:10049800012B08D17B681B681B6803F00103012B43
:1004A80001D1012300E00023002B1CD1FB68002BA5
:1004B80010D0FB689B6803F00303012B07D1FB688E
:1004C8001B6803F00103012B01D1012300E0002385
:1004D800002B08D1FB6D9B6823F440327B685B6876
:1004E8001A43FB6D9A607B685B7E5B037A68526B8C
:1004F800012A02D04FF4805200E000221A437B68A0
:10050800DB681A437B689B6813433A6E13433B6668
:100518007B6893F82030012B1BD17B685B7E002B16
:1005280009D17B685B6A013B5A043B6E134343F471
:1005380080333B660DE07B681B6C23F0220343F09D
:1005480020027B681A647B685B6C43F001027B685D
:100558005A647B689B6A012B07D07B689A6A7B6820
:10056800DB6A13433A6E13433B667B681B689B68E0
:1005780003F00C03002B14D17B681B68DB687A68D6
:10058800126823F4804323F00203D3607B681B7E48
:100598009A037B6893F830305B0013433A6E134339
:1005A8003B667B681B68DA68224B13407A681268DE
:1005B800396E0B43D3607B681B69012B0CD17B68B8
:1005C8001B681B6B23F00F017B68DB695A1E7B6875
:1005D8001B680A431A6307E07B681B681A6B7B6811
:1005E8001B6822F00F021A637B6800225A647B683A
:1005F8001B6C23F0030343F001027B681A640AE0D2
:100608007B681B6C23F0120343F010027B681A64AA
:10061800012387F8673097F8673018466837BD4672
:1006280080BD00BF0800002083DE1B43000300508C
:100638000001005007C0F0FF80B584B000AF7860BB
:100648000023FB737B681B689B6803F00403002B83
:1006580040F09C807B6893F83C30012B01D1022349
:1006680097E07B68012283F83C20786800F06AFFF5
:100678000346FB73FB7B002B40F083807B681B6C7D
:1006880023F4706323F0010343F480727B681A64D7
:10069800424B9B6803F01F03002B04D07B681B6848
:1006A800B3F1A04F15D17B681B6C23F480127B68D3
:1006B8001A647B681B68DB6803F00073002B27D083
:1006C8007B681B6C23F4405343F480527B681A64A4
:1006D8001EE07B681B6C43F480127B681A647B689D
:1006E8001B68B3F1A04F04D07B681B682C4A934267
:1006F8000ED14FF0A043DB6803F00073002B07D046
:100708007B681B6C23F4405343F480527B681A6463
:100718007B681B6C03F48053B3F5805F06D17B685C
:100728005B6C23F006027B685A6402E07B68002257
:100738005A647B68002283F83C207B681B681C2273
:100748001A60164B9B6803F01F03002B10D0134B45
:100758009B6803F01F03052B0AD0104B9B6803F01E
:100768001F03092B04D07B681B68B3F1A04F0FD17E
:100778007B681B689A687B681B6842F004029A6071
:1007880006E07B68002283F83C2001E00223FB732B
:10079800FB7B18461037BD4680BD00BF00030050E4
:1007A8000001005080B584B000AF78600023FB736F
:1007B8007B6893F83C30012B01D1022323E07B684E
:1007C800012283F83C206C21786800F079FF034609
:1007D800FB73FB7B002B11D1786800F011FF0346F7
:1007E800FB73FB7B002B09D17B681B6C23F48853BC
:1007F80023F0010343F001027B681A647B6800223E
:1008080083F83C20FB7B18461037BD4680BD0000AE
:1008180080B586B000AF7860396000233B617B68A3
:100828005B69082B02D108237B612EE05A4BFB60E1
:10083800FB689B6803F01F03002B12D17B681B68C1
:10084800DB6803F00103012B1DD17B681B6C43F0AF
:1008580020027B681A647B68002283F83C2001230D
:1008680096E0FB689B6803F44043002B0BD07B6841
:100878001B6C43F020027B681A647B68002283F8B3
:100888003C20012384E00C237B61434B9B6803F0ED
:100898001F03002B04D07B681B68B3F1A04F04D161
:1008A8007B681B68DB683B6103E04FF0A043DB68B3
:1008B8003B61FFF7E5FCB8601AE03B68B3F1FF3F26
:1008C80016D03B68002B07D0FFF7DAFC0246BB685E
:1008D800D31A3A689A420BD27B681B6C43F0040225
:1008E8007B681A647B68002283F83C2003234FE06E
:1008F8007B681B681A687B691340002BDDD07B6816
:100908001B6C43F400727B681A647B681B68DB68A5
:1009180003F44063002B31D13B6903F40053002BEF
:100928002CD17B681B681B6803F00803082B25D1B2
:100938007B681B689B6803F00403002B12D17B685B
:100948001B6C23F480727B681A647B681B6C03F44D
:100958008053002B12D17B681B6C43F001027B682B
:100968001A640BE07B681B6C43F020027B681A64F6
:100978007B685B6C43F001027B685A643B6903F453
:100988008043002B03D17B681B687A691A600023B7
:1009980018461837BD4680BD0003005080B483B0A8
:1009A80000AF78607B681B681B6C18460C37BD4627
:1009B80080BC704780B586B000AF786000237B614B
:1009C80000233B610023FB607B681B681B6803F006
:1009D8000403042B06D17B681B685B6803F00403DF
:1009E800042B0DD07B681B681B6803F00803082BD9
:1009F8007AD17B681B685B6803F00803082B73D106
:100A08007B681B6C03F01003002B05D17B681B6C03
:100A180043F400727B681A64884B9B6803F01F03D9
:100A2800002B10D0854B9B6803F01F03052B0AD0C1
:100A3800824B9B6803F01F03092B04D07B681B685B
:100A4800B3F1A04F04D17B681B68DB683B6103E00E
:100A58004FF0A043DB683B617B681B68DB6803F4ED
:100A68004063002B39D13B6903F40053002B34D188
:100A78007B681B681B6803F00803082B2DD17B6873
:100A88001B689B6803F00403002B1AD17B681B6862
:100A98005A687B681B6822F00C025A607B681B6CE2
:100AA80023F480727B681A647B681B6C03F48053A0
:100AB800002B12D17B681B6C43F001027B681A641F
:100AC8000BE07B681B6C43F010027B681A647B6840
:100AD8005B6C43F001027B685A647868FFF7FEFBA1
:100AE8007B681B680C221A607B681B681B6803F014
:100AF8002003202B06D17B681B685B6803F020036A
:100B0800202B0FD07B681B681B6803F04003402B29
:100B180040F0A9807B681B685B6803F04003402BAA
:100B280040F0A1807B681B6C43F400527B681A6418
:100B3800424B9B6803F01F03002B10D03F4B9B6870
:100B480003F01F03052B0AD03C4B9B6803F01F03DF
:100B5800092B04D07B681B68B3F1A04F04D17B68D4
:100B68001B68DB683B6103E04FF0A043DB683B6137
:100B78007B681B68DB6C03F0C003002B10D03B695B
:100B880003F00073002B67D17B681B68DB6803F4F4
:100B98004063002B60D13B6903F40053002B5BD109
:100BA8007B681B681B6803F04003402B54D1234B20
:100BB8009B6803F01F03002B10D0204B9B6803F0A9
:100BC8001F03062B0AD01D4B9B6803F01F03072B3E
:100BD80004D07B681B68B3F1A04F04D17B681B6805
:100BE800DB68FB6003E04FF0A043DB68FB60FB6859
:100BF80003F40013002B2FD17B681B689B6803F05C
:100C08000803002B1CD17B681B685A687B681B682B
:100C180022F060025A607B681B6C23F480527B6868
:100C28001A647B681B6C03F48073002B14D17B68F7
:100C38001B6C43F001027B681A640DE0000300504E
:100C48007B681B6C43F010027B681A647B685B6CE2
:100C580043F001027B685A64786800F0CBF87B683F
:100C68001B6860221A607B681B681B6803F080039E
:100C7800802B13D17B681B685B6803F08003802B93
:100C88000CD17B681B6C43F480327B681A647868EB
:100C9800FFF72DFB7B681B6880221A607B681B6846
:100CA8001B6803F48073B3F5807F15D17B681B68DC
:100CB8005B6803F48073B3F5807F0DD17B681B6C90
:100CC80043F400327B681A64786800F0A5F87B6802
:100CD8001B684FF480721A607B681B681B6803F4FA
:100CE8000073B3F5007F15D17B681B685B6803F45C
:100CF8000073B3F5007F0DD17B681B6C43F4802231
:100D08007B681A64786800F090F87B681B684FF479
:100D180000721A607B681B681B6803F01003102BB5
:100D28003DD17B681B685B6803F01003102B36D13C
:100D38007B685B6B012B02D101237B6119E02C4B93
:100D4800BB60BB689B6803F01F03002B09D17B685D
:100D58001B68DB6803F00103012B0AD101237B61C7
:100D680007E0BB689B6803F44043002B01D00123D4
:100D78007B617B69012B0ED17B681B6C43F480621D
:100D88007B681A647B685B6C43F002027B685A6478
:100D98007868FFF7B5FA7B681B6810221A607B68D1
:100DA8001B681B6803F48063B3F5806F1BD17B68F5
:100DB8001B685B6803F48063B3F5806F13D17B68AD
:100DC8001B6C43F480427B681A647B685B6C43F05D
:100DD80008027B685A647B681B684FF480621A605B
:100DE800786800F010F800BF1837BD4680BD00BF16
:100DF8000003005080B483B000AF786000BF0C37A8
:100E0800BD4680BC704780B483B000AF786000BF37
:100E18000C37BD4680BC704780B483B000AF7860A3
:100E280000BF0C37BD4680BC704780B483B000AFAC
:100E3800786000BF0C37BD4680BC704780B49BB05B
:100E480000AF78603960002387F867300023BB6003
:100E58007B6893F83C30012B01D10223A5E27B6823
:100E6800012283F83C207B681B689B6803F004031D
:100E7800002B40F089823B685B68042B1CD87B6898
:100E88001B68196B3B685A6813465B0013445B0088
:100E98001A461F239340DB4319403B6818683B6898
:100EA8005A6813465B0013445B0000FA03F27B6840
:100EB8001B680A431A6363E03B685B68092B1ED80A
:100EC8007B681B68596B3B685A6813465B00134480
:100ED8005B001E3B1F2202FA03F3DB4319403B6809
:100EE80018683B685A6813465B0013445B001E3B56
:100EF80000FA03F27B681B680A435A6340E03B68C8
:100F08005B680E2B1ED87B681B68996B3B685A6818
:100F180013465B0013445B003C3B1F2202FA03F3B9
:100F2800DB4319403B6818683B685A6813465B0006
:100F380013445B003C3B00FA03F27B681B680A43DE
:100F48009A631DE07B681B68D96B3B685A68134637
:100F58005B0013445B005A3B1F2202FA03F3DB4396
:100F680019403B6818683B685A6813465B0013448D
:100F78005B005A3B00FA03F27B681B680A43DA639A
:100F88007B681B689B6803F00C03002B40F0E5802E
:100F98003B681B68092B1CD97B681B6899693B68EF
:100FA8001A6813465B0013441E3B072202FA03F338
:100FB800DB4319403B6898683B681A6813465B0036
:100FC80013441E3B00FA03F27B681B680A439A61CC
:100FD80019E07B681B6859693B681A6813465B000F
:100FE8001344072202FA03F3DB4319403B6898686D
:100FF8003B681A6813465B00134400FA03F27B68E7
:101008001B680A435A613B685A697B681B68DB683E
:10101800DB0803F003035B0002FA03F33B663B685B
:101028001B69013B032B4FD801A252F823F000BFE4
:10103800491000086B1000088D100008AF10000858
:101048007B681B681A6E9E4B13403A6812689106BB
:101058003A6E0A431A437B681B6842F000421A66DC
:101068007EE07B681B685A6E954B13403A6812689D
:1010780091063A6E0A431A437B681B6842F00042A5
:101088005A666DE07B681B689A6E8D4B13403A6810
:10109800126891063A6E0A431A437B681B6842F04D
:1010A80000429A665CE07B681B68DA6E844B1340EA
:1010B8003A68126891063A6E0A431A437B681B68BD
:1010C80042F00042DA664BE07B681B681B6E03F057
:1010D800F8423B681B689B069A4207D17B681B68ED
:1010E8001A6E7B681B6822F000421A667B681B68D0
:1010F8005B6E03F0F8423B681B689B069A4207D177
:101108007B681B685A6E7B681B6822F000425A662F
:101118007B681B689B6E03F0F8423B681B689B0664
:101128009A4207D17B681B689A6E7B681B6822F01D
:1011380000429A667B681B68DB6E03F0F8423B68E6
:101148001B689B069A420AD17B681B68DA6E7B682B
:101158001B6822F00042DA6601E000BF00E000BF31
:101168007B681B689B6803F00303012B08D17B682D
:101178001B681B6803F00103012B01D1012300E068
:101188000023002B40F00B813B68DB68012B0FD05C
:101198007B681B68D3F8B0103B681B68012202FA11
:1011A80003F3DA437B681B680A40C3F8B02049E0C0
:1011B8007B681B68D3F8B0103B681B6801229A4013
:1011C8007B681B680A43C3F8B0203B681B68092B7F
:1011D8001CD97B681B6899693B681A6813465B00D1
:1011E80013441B3B072202FA03F3DB4319403B6815
:1011F80098683B681A6813465B0013441B3B00FA67
:1012080003F27B681B680A439A611BE07B681B68D2
:1012180059693B681B685A1C13465B001344072234
:1012280002FA03F3DB4319403B6898683B681B6884
:101238005A1C13465B00134400FA03F27B681B68D0
:101248000A435A611F4BFB653B681B68102B05D18D
:10125800FB6D9B6803F40003002B15D03B681B68EB
:10126800112B05D1FB6D9B6803F08073002B0BD00D
:101278003B681B68122B40F09280FB6D9B6803F45F
:101288008003002B40F08B807B681B68B3F1A04F74
:1012980002D10D4BFB6002E04FF0A043FB607B687E
:1012A8001B689B6803F00303012B0FD17B681B6845
:1012B8001B6803F00103012B08D1012307E000BFDD
:1012C80000F0FF8300030050000100500023002BB2
:1012D80050D1FB68002B10D0FB689B6803F0030318
:1012E800012B07D1FB681B6803F00103012B01D117
:1012F800012300E00023002B3CD13B681B68102B26
:101308001DD17B681B68B3F1A04F18D1FB6D9B689A
:1013180043F40002FB6D9A60264B1B68264AA2FB29
:1013280003239A0C13469B0013445B00BB6002E046
:10133800BB68013BBB60BB68002BF9D12EE03B6862
:101348001B68112B0BD17B681B68B3F1A04F06D12A
:10135800FB6D9B6843F08072FB6D9A601EE03B68F2
:101368001B68122B1AD1FB6D9B6843F48002FB6D3E
:101378009A6013E07B681B6C43F020027B681A6458
:10138800012387F867300AE07B681B6C43F0200272
:101398007B681A64012387F8673000E000BF7B6828
:1013A800002283F83C2097F8673018466C37BD4612
:1013B80080BC70470800002083DE1B4380B499B0CE
:1013C80000AF78603960002387F85F307B681B685E
:1013D800B3F1A04F02D1594BBB6002E04FF0A043DC
:1013E800BB60BB68002B01D10123A2E07B6893F8A6
:1013F8003C30012B01D102239BE07B68012283F85A
:101408003C207B681B689B6803F00403002B7FD19A
:10141800BB689B6803F00403002B79D1484BBB657C
:101428003B681B68002B40D0BB6D9B6823F460426F
:101438003B6859687B6893F830305B030B431A4369
:10144800BB6D9A607B681B689B6803F00303012BE4
:1014580008D17B681B681B6803F00103012B01D1CD
:10146800012300E00023002B5CD1BB689B6803F0DC
:101478000303012B07D1BB681B6803F00103012B91
:1014880001D1012300E00023002B4BD1BB6D9B68E9
:1014980023F4716323F00F033A6811683A6892687D
:1014A8000A431A43BB6D9A603CE0BB6D9B6823F40A
:1014B8006042BB6D9A607B681B689B6803F00303FE
:1014C800012B08D17B681B681B6803F00103012B03
:1014D80001D1012300E00023002B23D1BB689B68C6
:1014E80003F00303012B07D1BB681B6803F001035A
:1014F800012B01D1012300E00023002B12D1BB6D89
:101508009B6823F4716323F00F03BA6D936009E0BD
:101518007B681B6C43F020027B681A64012387F800
:101528005F3000E000BF7B68002283F83C2097F81A
:101538005F3018466437BD4680BC704700010050D4
:101548000003005080B584B000AF78600023FB60D2
:101558007B681B689B6803F00303012B08D17B6839
:101568001B681B6803F00103012B01D1012300E074
:101578000023002B3CD17B681B689A681F4B1340E3
:10158800002B0DD07B681B6C43F010027B681A643B
:101598007B685B6C43F001027B685A64012328E096
:1015A8007B681B689A687B681B6842F001029A6036
:1015B800FEF766FEF86014E0FEF762FE0246FB687E
:1015C800D31A022B0DD97B681B6C43F010027B6881
:1015D8001A647B685B6C43F001027B685A640123E0
:1015E80007E07B681B681B6803F00103012BE3D14C
:1015F800002318461037BD4680BD00BF3F0000805D
:1016080080B584B000AF78600023FB607B681B68FE
:101618009B6803F00303012B08D17B681B681B68D8
:1016280003F00103012B01D1012300E00023002B6B
:1016380040D07B681B689B6803F00D03012B0FD11A
:101648007B681B689A687B681B6842F002029A6094
:101658007B681B6803221A60FEF712FEF86022E01E
:101668007B681B6C43F010027B681A647B685B6CB8
:1016780043F001027B685A6401231CE0FEF700FE78
:101688000246FB68D31A022B0DD97B681B6C43F00A
:1016980010027B681A647B685B6C43F001027B680C
:1016A8005A64012307E07B681B689B6803F0010309
:1016B800012BE3D0002318461037BD4680BD00003B
:1016C80080B586B000AF7860396000237B61002365
:1016D800FB6000233B617B681B689B6803F00C037D
:1016E800002B00F094807B681B68DB6803F00073B4
:1016F800B3F1007F2AD17B685B7E012B26D17B6802
:101708001B7E012B22D10C233B6014E03B69424A2B
:1017180093420DD97B681B6C43F010027B681A64F6
:101728007B685B6C43F001027B685A6401236FE0BD
:101738003B6901333B617B681B681B6803F040030E
:10174800402BE3D17B681B6840221A603B68602B02
:1017580015D07B681B689B6803F00403042B0ED12B
:101768007B681B689B6803F00203002B07D17B682A
:101778001B689A687B681B6842F010029A603B6895
:101788000C2B15D07B681B689B6803F00803082B9B
:101798000ED17B681B689B6803F00203002B07D1FE
:1017A8007B681B689A687B681B6842F020029A6015
:1017B8003B68602B05D03B686C2B05D10C237B6103
:1017C80005E008237B6102E004237B6100BFFEF78C
:1017D80057FDF86014E0FEF753FD0246FB68D31A84
:1017E8000B2B0DD97B681B6C43F010027B681A64C5
:1017F8007B685B6C43F001027B685A64012307E055
:101808007B681B689A687B691340002BE3D100232F
:1018180018461837BD4680BDFF93090080B485B0CF
:1018280000AF78607B6803F00703FB600C4BDB6854
:10183800BB60BA684FF6FF031340BB60FB681A022F
:10184800BB68134343F0BF6343F40033BB60044AEF
:10185800BB68D36000BF1437BD4680BC704700BF6B
:1018680000ED00E080B400AF044BDB681B0A03F016
:1018780007031846BD4680BC704700BF00ED00E076
:1018880080B483B000AF0346FB7197F90730002B93
:101898000BDBFB7903F01F02064997F907305B0958
:1018A800012000FA02F241F8232000BF0C37BD46A0
:1018B80080BC704700E100E080B483B000AF03460D
:1018C8003960FB7197F90730002B0ADB3B68DAB205
:1018D8000C4997F907301201D2B20B4483F8002360
:1018E8000AE03B68DAB20849FB7903F00F03043BCE
:1018F8001201D2B20B441A7600BF0C37BD4680BC29
:10190800704700BF00E100E000ED00E080B489B05E
:1019180000AFF860B9607A60FB6803F00703FB6109
:10192800FB69C3F10703042B28BF0423BB61FB69D0
:101938000433062B02D9FB69033B00E000237B61DB
:101948004FF0FF32BB6902FA03F3DA43BB681A406F
:101958007B699A404FF0FF317B6901FA03F3D94361
:101968007B680B40134318462437BD4680BC70473C
:1019780080B582B000AF78607B68013BB3F1807FAF
:1019880001D301230FE00A4A7B68013B53600F2112
:101998004FF0FF30FFF790FF054B00229A60044B91
:1019A80007221A60002318460837BD4680BD00BFCD
:1019B80010E000E080B582B000AF78607868FFF78B
:1019C8002DFF00BF0837BD4680BD80B586B000AF8B
:1019D8000346B9607A60FB7300237B61FFF742FF1F
:1019E80078617A68B9687869FFF790FF024697F9D5
:1019F8000F3011461846FFF75FFF00BF1837BD4686
:101A080080BD80B582B000AF0346FB7197F90730FF
:101A18001846FFF735FF00BF0837BD4680BD80B5C3
:101A280082B000AF78607868FFF7A2FF03461846D7
:101A38000837BD4680BD000080B487B000AF78602D
:101A4800396000237B614EE13B681A6801217B699C
:101A580001FA03F31340FB60FB68002B00F04081A0
:101A68003B685B68022B03D03B685B68122B23D171
:101A78007B69DA087B68083253F822303B617B695E
:101A880003F007039B000F2202FA03F3DB433A69D2
:101A980013403B613B681A697B6903F007039B00AD
:101AA80002FA03F33A6913433B617B69DA087B68FE
:101AB8000832396943F822107B681B683B617B69EF
:101AC8005B00032202FA03F3DB433A6913403B61EC
:101AD8003B685B6803F003027B695B0002FA03F36F
:101AE8003A6913433B617B683A691A603B685B68F3
:101AF800012B0BD03B685B68022B07D03B685B6807
:101B0800112B03D03B685B68122B30D17B689B6834
:101B18003B617B695B00032202FA03F3DB433A690A
:101B280013403B613B68DA687B695B0002FA03F3A8
:101B38003A6913433B617B683A699A607B685B68E2
:101B48003B6101227B6902FA03F3DB433A691340E4
:101B58003B613B685B681B0903F001027B6902FA81
:101B680003F33A6913433B617B683A695A607B68BF
:101B7800DB683B617B695B00032202FA03F3DB430A
:101B88003A6913403B613B689A687B695B0002FADB
:101B980003F33A6913433B617B683A69DA603B684F
:101BA8005B6803F08053002B00F09A80554B9B69CB
:101BB800544A43F001039361524B9B6903F00103BC
:101BC800BB60BB68504A7B699B08023352F82330DC
:101BD8003B617B6903F003039B000F2202FA03F3C6
:101BE800DB433A6913403B617B68B3F1904F13D0F4
:101BF8007B68464A93420DD07B68454A934207D09A
:101C08007B68444A934201D1032306E0052304E09C
:101C1800022302E0012300E000237A6902F00302B4
:101C2800920093403A6913433B6137497B699B08AB
:101C380002333A6941F82320374B1B683B61FB6844
:101C4800DB433A6913403B613B685B6803F48033CC
:101C5800002B03D03A69FB6813433B612E4A3B696A
:101C680013602D4B5B683B61FB68DB433A691340AB
:101C78003B613B685B6803F40033002B03D03A698F
:101C8800FB6813433B61244A3B695360224B9B68C2
:101C98003B61FB68DB433A6913403B613B685B6827
:101CA80003F48013002B03D03A69FB6813433B61AC
:101CB800194A3B699360184BDB683B61FB68DB435F
:101CC8003A6913403B613B685B6803F40013002BDF
:101CD80003D03A69FB6813433B610F4A3B69D36001
:101CE8007B6901337B613B681A687B6922FA03F3DD
:101CF800002B7FF4A9AE00BF00BF1C37BD4680BCD7
:101D0800704700BF00100240000001400004004876
:101D180000080048000C00480004014080B485B069
:101D280000AF78600B467B807B681A697B8813401C
:101D3800002B02D00123FB7301E00023FB73FB7B24
:101D480018461437BD4680BC704780B483B000AFD6
:101D580078600B467B8013467B707B78002B03D022
:101D68007A887B689A6102E07A887B689A6200BF09
:101D78000C37BD4680BC704780B483B000AF786034
:101D88000B467B807B685A697B881340002B04D004
:101D98007B881A047B689A6102E07A887B689A617A
:101DA80000BF0C37BD4680BC7047000080B5ADF55C
:101DB800007D00AF3B1D18603B1D1B68002B02D146
:101DC800012300F0F4BE3B1D1B681B6803F00103F0
:101DD800002B00F06A81B34B5B6803F00C03042B03
:101DE8000CD0B04B5B6803F00C03082B59D1AD4BFA
:101DF8005B6803F48033B3F5803F52D14FF400336E
:101E0800C7F8F031D7F8F03193FAA3F3C7F8EC31FB
:101E1800D7F8EC31B3FA83F3DBB25B09DBB243F0FA
:101E28000103DBB2012B02D19E4B1B6815E04FF476
:101E38000033C7F8E831D7F8E83193FAA3F3C7F8C5
:101E4800E4314FF40033C7F8E031D7F8E03193FAC2
:101E5800A3F3C7F8DC31934B5B6A4FF40032C7F841
:101E6800D821D7F8D82192FAA2F2C7F8D421D7F806
:101E7800D421B2FA82F2D2B242F02002D2B202F0F7
:101E88001F02012101FA02F21340002B00F00C811D
:101E98003B1D1B685B68002B40F00681012300F0A6
:101EA80086BE3B1D1B685B68B3F5803F06D17D4B42
:101EB8001B687C4A43F48033136030E03B1D1B6889
:101EC8005B68002B0CD1774B1B68764A23F4803370
:101ED8001360744B1B68734A23F4802313601EE05D
:101EE8003B1D1B685B68B3F5A02F0CD16D4B1B68BD
:101EF8006C4A43F4802313606A4B1B68694A43F4B5
:101F0800803313600BE0674B1B68664A23F4803309
:101F18001360644B1B68634A23F480231360614B8E
:101F2800DB6A23F00F023B1D1B689B685D49134366
:101F3800CB623B1D1B685B68002B59D0FEF7A0F9EC
:101F4800C7F8F8010AE0FEF79BF90246D7F8F8311E
:101F5800D31A642B02D9032300F029BE4FF40033AF
:101F6800C7F8D031D7F8D03193FAA3F3C7F8CC31FA
:101F7800D7F8CC31B3FA83F3DBB25B09DBB243F0B9
:101F88000103DBB2012B02D1464B1B6815E04FF46D
:101F98000033C7F8C831D7F8C83193FAA3F3C7F8A4
:101FA800C4314FF40033C7F8C031D7F8C03193FAC1
:101FB800A3F3C7F8BC313B4B5B6A4FF40032C7F858
:101FC800B821D7F8B82192FAA2F2C7F8B421D7F805
:101FD800B421B2FA82F2D2B242F02002D2B202F0B6
:101FE8001F02012101FA02F21340002BABD05CE082
:101FF800FEF746F9C7F8F8010AE0FEF741F902468C
:10200800D7F8F831D31A642B02D9032300F0CFBDD7
:102018004FF40033C7F8B031D7F8B03193FAA3F3CF
:10202800C7F8AC31D7F8AC31B3FA83F3DBB25B094C
:10203800DBB243F00103DBB2012B02D1194B1B6861
:1020480015E04FF40033C7F8A831D7F8A83193FA50
:10205800A3F3C7F8A4314FF40033C7F8A031D7F879
:10206800A03193FAA3F3C7F89C310E4B5B6A4FF487
:102078000032C7F89821D7F8982192FAA2F2C7F847
:102088009421D7F89421B2FA82F2D2B242F0200217
:10209800D2B202F01F02012101FA02F21340002B12
:1020A800ABD102E00010024000BF3B1D1B681B685B
:1020B80003F00203002B00F06F81D04B5B6803F044
:1020C8000C03002B0BD0CD4B5B6803F00C03082BE3
:1020D8006CD1CA4B5B6803F48033002B66D10223B2
:1020E800C7F89031D7F8903193FAA3F3C7F88C3139
:1020F800D7F88C31B3FA83F3DBB25B09DBB243F078
:102108000103DBB2012B02D1BC4B1B6813E0022395
:10211800C7F88831D7F8883193FAA3F3C7F8843120
:102128000223C7F88031D7F8803193FAA3F3C7F8B0
:102138007C31B24B5B6A0222C7F87821D7F8782144
:1021480092FAA2F2C7F87421D7F87421B2FA82F28F
:10215800D2B242F02002D2B202F01F02012101FAEB
:1021680002F21340002B07D03B1D1B681B69012B93
:1021780002D0012300F01BBDA04B1B6823F0F8021E
:102188003B1D1B685B69F821C7F87011D7F87011FF
:1021980091FAA1F1C7F86C11D7F86C11B1FA81F175
:1021A800C9B28B40954913430B60F5E03B1D1B6892
:1021B8001B69002B00F085800123C7F86831D7F828
:1021C800683193FAA3F3C7F86431D7F86431B3FAE6
:1021D80083F3DBB203F1845303F584139B001A469F
:1021E80001231360FEF74CF8C7F8F8010AE0FEF780
:1021F80047F80246D7F8F831D31A022B02D903233D
:1022080000F0D5BC0223C7F86031D7F8603193FAE3
:10221800A3F3C7F85C31D7F85C31B3FA83F3DBB2C8
:102228005B09DBB243F00103DBB2012B02D1734B34
:102238001B6813E00223C7F85831D7F8583193FACE
:10224800A3F3C7F854310223C7F85031D7F85031F7
:1022580093FAA3F3C7F84C31684B5B6A0222C7F8BC
:102268004821D7F8482192FAA2F2C7F84421D7F8B2
:102278004421B2FA82F2D2B242F02002D2B202F083
:102288001F02012101FA02F21340002BAFD05B4B71
:102298001B6823F0F8023B1D1B685B69F821C7F82F
:1022A8004011D7F8401191FAA1F1C7F83C11D7F8BD
:1022B8003C11B1FA81F1C9B28B40504913430B600C
:1022C8006AE00123C7F83831D7F8383193FAA3F315
:1022D800C7F83431D7F83431B3FA83F3DBB203F1FA
:1022E800845303F584139B001A4600231360FDF7FB
:1022F800C7FFC7F8F8010AE0FDF7C2FF0246D7F8A2
:10230800F831D31A022B02D9032300F050BC022360
:10231800C7F83031D7F8303193FAA3F3C7F82C3126
:10232800D7F82C31B3FA83F3DBB25B09DBB243F0A5
:102338000103DBB2012B02D1304B1B6813E00223EF
:10234800C7F82831D7F8283193FAA3F3C7F824310E
:102358000223C7F82031D7F8203193FAA3F3C7F83E
:102368001C31264B5B6A0222C7F81821D7F81821BE
:1023780092FAA2F2C7F81421D7F81421B2FA82F21D
:10238800D2B242F02002D2B202F01F02012101FAB9
:1023980002F21340002BAFD13B1D1B681B6803F0F2
:1023A8000803002B00F0DA803B1D1B689B69002B9B
:1023B80069D00123C7F81031D7F8103193FAA3F385
:1023C800C7F80C31D7F80C31B3FA83F3DBB21A46ED
:1023D8000B4B13449B001A4601231360FDF750FF73
:1023E800C7F8F8010EE0FDF74BFF0246D7F8F831C1
:1023F800D31A022B06D90323D9E300BF00100240E9
:10240800208190100223C7F80831D7F8083193FAD1
:10241800A3F3C7F8043107F5807302221A6007F5A1
:1024280080731B6893FAA3F207F1FC031A6007F1A3
:10243800F80302221A6007F1F8031B6893FAA3F263
:1024480007F1F4031A60A54B5A6A07F1F003022159
:10245800196007F1F0031B6893FAA3F107F1EC0385
:10246800196007F1EC031B68B3FA83F3DBB243F09E
:102478006003DBB203F01F03012101FA03F31340E9
:10248800002BB0D06AE007F1E80301221A6007F1D7
:10249800E8031B6893FAA3F207F1E4031A6007F153
:1024A800E4031B68B3FA83F3DBB21A468C4B13447C
:1024B8009B001A4600231360FDF7E2FEC7F8F801F7
:1024C80009E0FDF7DDFE0246D7F8F831D31A022BF2
:1024D80001D903236BE307F1E00302221A6007F135
:1024E800E0031B6893FAA3F207F1DC031A6007F113
:1024F800D80302221A6007F1D8031B6893FAA3F2E3
:1025080007F1D4031A6007F1D00302221A6007F119
:10251800D0031B6893FAA3F207F1CC031A606F4B40
:102528005A6A07F1C8030221196007F1C8031B683A
:1025380093FAA3F107F1C403196007F1C4031B68F8
:10254800B3FA83F3DBB243F06003DBB203F01F039B
:10255800012101FA03F31340002BB2D13B1D1B6884
:102568001B6803F00403002B00F05881002387F850
:10257800FF315A4BDB6903F08053002B12D1574BC4
:10258800DB69564A43F08053D361544BDB6903F04F
:10259800805207F108031A6007F108031B6801233A
:1025A80087F8FF314F4B1B6803F48073002B1AD157
:1025B8004C4B1B684B4A43F480731360FDF760FE75
:1025C800C7F8F80109E0FDF75BFE0246D7F8F831D5
:1025D800D31A642B01D90323E9E2424B1B6803F4A5
:1025E8008073002BEFD03B1D1B68DB68012B06D1E5
:1025F8003A4B1B6A394A43F0010313622FE03B1D33
:102608001B68DB68002B0CD1344B1B6A334A23F060
:1026180001031362314B1B6A304A23F0040313622F
:102628001DE03B1D1B68DB68052B0CD12B4B1B6A7F
:102638002A4A43F004031362284B1B6A274A43F0D3
:10264800010313620BE0254B1B6A244A23F00103A4
:102658001362224B1B6A214A23F0040313623B1DB9
:102668001B68DB68002B6BD0FDF70AFEC7F8F80182
:102678000BE0FDF705FE0246D7F8F831D31A41F210
:102688008832934201D9032391E207F1C003022261
:102698001A6007F1C0031B6893FAA3F207F1BC03A1
:1026A8001A6007F1B80302221A6007F1B8031B6821
:1026B80093FAA3F207F1B4031A6007F1B4031B6895
:1026C800B3FA83F3DBB25B09DBB243F00203DBB29C
:1026D800022B09D1014B1B6A14E000BF0010024015
:1026E800208190100070004007F1B00302221A60A8
:1026F80007F1B0031B6893FAA3F207F1AC031A6061
:10270800BB4B5B6A07F1A8020221116007F1A8021E
:10271800126892FAA2F107F1A402116007F1A4026B
:102728001268B2FA82F2D2B242F04002D2B202F099
:102738001F02012101FA02F21340002B99D063E035
:10274800FDF79EFDC7F8F8010BE0FDF799FD02467D
:10275800D7F8F831D31A41F28832934201D90323CA
:1027680025E207F1A00302221A6007F1A0031B6803
:1027780093FAA3F207F19C031A6007F19803022267
:102788001A6007F198031B6893FAA3F207F1940300
:102798001A6007F194031B68B3FA83F3DBB25B0991
:1027A800DBB243F00203DBB2022B02D1904B1B6A6F
:1027B8000DE007F1900302221A6007F190031B68ED
:1027C80093FAA3F207F18C031A60894B5B6A07F14D
:1027D80088020221116007F18802126892FAA2F1B8
:1027E80007F18402116007F184021268B2FA82F2DA
:1027F800D2B242F04002D2B202F01F02012101FA25
:1028080002F21340002BA0D197F8FF31012B05D11C
:10281800774BDB69764A23F08053D3613B1D1B68F5
:10282800DB69002B00F0C281714B5B6803F00C037D
:10283800082B00F09C813B1D1B68DB69022B40F0D4
:10284800148107F180034FF080721A6007F180034A
:102858001B6893FAA3F207F17C031A6007F17C0363
:102868001B68B3FA83F3DBB203F1845303F58413D3
:102878009B001A4600231360FDF702FDC7F8F80114
:1028880009E0FDF7FDFC0246D7F8F831D31A022B10
:1028980001D903238BE107F178034FF000721A6026
:1028A80007F178031B6893FAA3F207F174031A601F
:1028B80007F174031B68B3FA83F3DBB25B09DBB27D
:1028C80043F00103DBB2012B02D1494B1B681BE02B
:1028D80007F170034FF000721A6007F170031B686C
:1028E80093FAA3F207F16C031A6007F168034FF03B
:1028F80000721A6007F168031B6893FAA3F207F1E4
:1029080064031A603A4B5B6A07F160024FF000718A
:10291800116007F16002126892FAA2F107F15C02F5
:10292800116007F15C021268B2FA82F2D2B242F088
:102938002002D2B202F01F02012101FA02F2134072
:10294800002B9ED12A4B5B6823F474123B1D1B6835
:10295800596A3B1D1B681B6A0B43254913434B608F
:1029680007F158034FF080721A6007F158031B688B
:1029780093FAA3F207F154031A6007F154031B6892
:10298800B3FA83F3DBB203F1845303F584139B009A
:102998001A4601231360FDF773FCC7F8F80109E034
:1029A800FDF76EFC0246D7F8F831D31A022B01D98D
:1029B8000323FCE007F150034FF000721A6007F19F
:1029C80050031B6893FAA3F207F14C031A6007F14E
:1029D8004C031B68B3FA83F3DBB25B09DBB243F049
:1029E8000103DBB2012B05D1014B1B681EE000BFC0
:1029F8000010024007F148034FF000721A6007F117
:102A080048031B6893FAA3F207F144031A6007F11D
:102A180040034FF000721A6007F140031B6893FAF5
:102A2800A3F207F13C031A60634B5B6A07F13802B3
:102A38004FF00071116007F13802126892FAA2F1A2
:102A480007F13402116007F134021268B2FA82F217
:102A5800D2B242F02002D2B202F01F02012101FAE2
:102A680002F21340002B9BD0A0E007F130034FF097
:102A780080721A6007F130031B6893FAA3F207F11A
:102A88002C031A6007F12C031B68B3FA83F3DBB23B
:102A980003F1845303F584139B001A460023136043
:102AA800FDF7EEFBC7F8F80109E0FDF7E9FB024680
:102AB800D7F8F831D31A022B01D9032377E007F1AD
:102AC80028034FF000721A6007F128031B6893FA75
:102AD800A3F207F124031A6007F124031B68B3FA71
:102AE80083F3DBB25B09DBB243F00103DBB2012BFA
:102AF80002D1314B1B681BE007F120034FF0007235
:102B08001A6007F120031B6893FAA3F207F11C036C
:102B18001A6007F118034FF000721A6007F11803E2
:102B28001B6893FAA3F207F114031A60224B5B6A3D
:102B380007F110024FF00071116007F110021268DE
:102B480092FAA2F107F10C02116007F10C02126867
:102B5800B2FA82F2D2B242F02002D2B202F01F02DE
:102B6800012101FA02F21340002B9ED11EE03B1D09
:102B78001B68DB69012B01D1012318E00E4B5B6850
:102B8800C7F8F431D7F8F43103F480323B1D1B68E1
:102B98001B6A9A4208D1D7F8F43103F470123B1D2E
:102BA8001B685B6A9A4201D0012300E000231846A3
:102BB80007F50077BD4680BD0010024080B59EB085
:102BC80000AF7860396000237B677B68002B01D1F8
:102BD800012362E1904B1B6803F007033A689A42AD
:102BE80010D98D4B1B6823F007028B493B681343B0
:102BF8000B60894B1B6803F007033A689A4201D0BF
:102C080001234AE17B681B6803F00203002B08D00C
:102C1800824B5B6823F0F0027B689B687F49134313
:102C28004B607B681B6803F00103002B00F0DC801D
:102C38007B685B68012B3CD14FF400333B673B6FEB
:102C480093FAA3F3FB66FB6EB3FA83F3DBB25B097B
:102C5800DBB243F00103DBB2012B02D16F4B1B68DF
:102C68000FE04FF40033BB66BB6E93FAA3F37B66A9
:102C78004FF400333B663B6E93FAA3F3FB65674B57
:102C88005B6A4FF40032BA65BA6D92FAA2F27A65BD
:102C98007A6DB2FA82F2D2B242F02002D2B202F0D7
:102CA8001F02012101FA02F21340002B7BD10123FC
:102CB800F3E07B685B68022B3CD14FF000733B6507
:102CC8003B6D93FAA3F3FB64FB6CB3FA83F3DBB2BB
:102CD8005B09DBB243F00103DBB2012B02D14F4B9E
:102CE8001B680FE04FF00073BB64BB6C93FAA3F34F
:102CF8007B644FF000733B643B6C93FAA3F3FB6374
:102D0800464B5B6A4FF00072BA63BA6B92FAA2F252
:102D18007A637A6BB2FA82F2D2B242F02002D2B26D
:102D280002F01F02012101FA02F21340002B3AD1EE
:102D38000123B2E002233B633B6B93FAA3F3FB62EC
:102D4800FB6AB3FA83F3DBB25B09DBB243F001033E
:102D5800DBB2012B02D1314B1B680DE00223BB62B1
:102D6800BB6A93FAA3F37B6202233B623B6A93FA42
:102D7800A3F3FB61294B5B6A0222BA61BA6992FA32
:102D8800A2F27A617A69B2FA82F2D2B242F02002F1
:102D9800D2B202F01F02012101FA02F21340002B05
:102DA80001D1012379E01D4B5B6823F003027B68A6
:102DB8005B681A4913434B60FDF762FA78670AE0CB
:102DC800FDF75EFA02467B6FD31A41F288329342CE
:102DD80001D9032361E0114B5B6803F00C027B68A7
:102DE8005B689B009A42EBD10B4B1B6803F007030F
:102DF8003A689A4214D2084B1B6823F00702064926
:102E08003B6813430B60044B1B6803F007033A68E5
:102E18009A4205D0012340E0002002400010024001
:102E28007B681B6803F00403002B08D01D4B5B680C
:102E380023F4E0627B68DB681A4913434B607B68C4
:102E48001B6803F00803002B09D0164B5B6823F4BA
:102E580060527B681B69DB00124913434B6000F02A
:102E680029F801460F4B5B6803F0F003F0223A6142
:102E78003A6992FAA2F2FA60FA68B2FA82F2D2B227
:102E8800D340094AD35C21FA03F3084A1360084B7C
:102E98001B681846FDF7B2F9002318467837BD4677
:102EA80080BD00BF00100240E84000080800002074
:102EB8000000002080B48BB000AF0023FB6100232A
:102EC800BB6100237B6200237B6100233B62284BAC
:102ED8005B68FB61FB6903F00C03042B02D0082B31
:102EE80003D03CE0234B3B623CE0FB6903F47013E6
:102EF8004FF47012BA60BA6892FAA2F27A607A68ED
:102F0800B2FA82F2D2B2D3401B4AD35C7B61184B2F
:102F1800DB6A03F00F030F223A613A6992FAA2F2D0
:102F2800FA60FA68B2FA82F2D2B2D340134AD35C9A
:102F3800BB61FB6903F48033002B08D00D4ABB69E1
:102F4800B2FBF3F27B6902FB03F37B6204E07B696B
:102F58000B4A02FB03F37B627B6A3B6202E0054B90
:102F68003B6200BF3B6A18462C37BD4680BC7047A1
:102F78000010024000127A00C4400008D440000843
:102F880000093D0080B592B000AF786000233B6433
:102F98000023FB637B681B6803F48033002B00F07D
:102FA800D080002387F847308E4BDB6903F08053CD
:102FB800002B0ED18B4BDB698A4A43F08053D361D7
:102FC800884BDB6903F08053BB60BB68012387F83B
:102FD8004730854B1B6803F48073002B18D1824B54
:102FE8001B68814A43F480731360FDF749F938641C
:102FF80008E0FDF745F902463B6CD31A642B01D96A
:103008000323EAE0784B1B6803F48073002BF0D0AD
:10301800744B1B6A03F44073FB63FB6B002B7DD07E
:103028007B685B6803F44073FA6B9A4276D06D4B09
:103038001B6A23F44073FB634FF480333B633B6BA1
:1030480093FAA3F3FB62FB6AB3FA83F3DBB21A4683
:10305800664B13449B001A46012313604FF48033D8
:10306800BB63BB6B93FAA3F37B637B6BB3FA83F30A
:10307800DBB21A465D4B13449B001A4600231360CB
:10308800584AFB6B1362FB6B03F00103002B45D01E
:10309800FDF7F6F838640AE0FDF7F2F802463B6CF3
:1030A800D31A41F28832934201D9032395E00223CF
:1030B800BB62BB6A93FAA3F37B6202233B623B6A5F
:1030C80093FAA3F3FB61FB69B3FA83F3DBB25B0901
:1030D800DBB243F00203DBB2022B02D1414B1B6A85
:1030E80007E00223BB61BB6993FAA3F37B613D4B05
:1030F8005B6A02223A613A6992FAA2F2FA60FA68C5
:10310800B2FA82F2D2B242F04002D2B202F01F0208
:10311800012101FA02F21340002BBDD0314B1B6A8A
:1031280023F440727B685B682E4913430B6297F85F
:103138004730012B05D12B4BDB692A4A23F08053FA
:10314800D3617B681B6803F00103002B08D0254B73
:103158001B6B23F003027B689B68224913430B63B4
:103168007B681B6803F02003002B08D01D4B1B6BEA
:1031780023F010027B68DB681A4913430B637B68F2
:103188001B6803F08003002B08D0164BDB6A23F47E
:10319800F8727B681B6913491343CB627B681B6811
:1031A80003F48053002B08D00E4B1B6B23F4807262
:1031B8007B685B690B4913430B637B681B6803F4EB
:1031C8008043002B08D0074B1B6B23F480527B688D
:1031D8009B69044913430B63002318464837BD46CF
:1031E80080BD00BF001002400070004000819010B8
:1031F80080B584B000AF78600C2000F02DFE034647
:10320800FB60FB687A681A60FB6800225A60FB68FA
:1032180000229A60FB6818461037BD4680BD80B40E
:1032280083B000AF78607B68642B8CBF01230023D8
:10323800DBB218460C37BD4680BC704780B584B0F9
:1032480000AF78600023FB607868FDF7F5F90A2184
:103258007868FDF7DDFA7868FDF7A0FBF860786814
:10326800FDF7A0FAFB6818461037BD4680BD80B54B
:1032780084B000AF786014E0FDF702F8F8607B686E
:103288009B68FA68D31AB3F57A7F0AD97B681B68FA
:103298001846FFF7D3FF02467B685A607B68FA68D6
:1032A8009A607B685B681846FFF7B9FF034683F0AE
:1032B8000103DBB2002BDFD100BF00BF1037BD46D2
:1032C80080BD80B582B000AF78607B68002B02D0EB
:1032D800786800F0C9FD00BF0837BD4680BD80B5DD
:1032E80084B000AF7860142000F0B6FD0346FB60A0
:1032F800FB687A681A60FB684FF47A725A60FB6858
:1033080000229A60FB680022DA60FB6800221A61DA
:10331800FB6818461037BD4680BD80B483B000AF47
:1033280078607B68642B8CBF01230023DBB21846CE
:103338000C37BD4680BC704780B584B000AF78605C
:103348000023FB607868FDF777F90A217868FDF7B4
:103358005FFA7868FDF722FBF8607868FDF722FAD3
:10336800FB6818461037BD4680BD000080B584B0A4
:1033780000AF7860FCF784FFF8607B68FA689A60B1
:103388002DE0FCF77DFFF8607B68DB68FA68D31AEC
:10339800642B06D980211D48FEF7EEFC7B68FA688D
:1033A800DA607B681B69FA68D31AB3F57A7F0AD9A1
:1033B8007B681B681846FFF7BFFF02467B685A60A8
:1033C8007B68FA681A617B689B68FA68D31AB3F558
:1033D8007A7F04D9012240210C48FEF7B6FC7B68AD
:1033E8005B681846FFF799FF0346002BC9D10022F6
:1033F80040210648FEF7A9FC002280210348FEF779
:10340800A4FC00BF1037BD4680BD00BF00080048BF
:1034180080B582B000AF78607B68002B02D07868F6
:1034280000F022FD00BF0837BD4680BD80B582B0E0
:1034380000AF082000F010FD03467B607B68012286
:103448001A707B6800225A607B6818460837BD46A8
:1034580080BD80B483B000AF0346FB71FB79012BBC
:103468000CBF01230023DBB218460C37BD4680BCD5
:103478007047000080B500AF4FF480710248FEF736
:103488004DFC0346184680BD0008004880B584B04E
:1034980000AF786018E0FFF7EDFF03461A467B6837
:1034A8001A70FCF7EDFEF8607B685B68FA68D31A5F
:1034B800B3F57A7F08D9FFF7DDFF03461A467B6824
:1034C8001A707B68FA685A607B681B781846FFF7A1
:1034D800C0FF0346002BDED100BF00BF1037BD463A
:1034E80080BD80B582B000AF78607B68002B02D0C9
:1034F800786800F0B9FC00BF0837BD4680BD80B5CC
:1035080082B000AF082000F0A7FC03467B607B6810
:1035180001221A707B6800225A607B6818460837B7
:10352800BD4680BD80B483B000AF0346FB71FB7914
:10353800012B0CBF01230023DBB218460C37BD4614
:1035480080BC704780B500AF4FF400710248FEF7A9
:10355800E5FB0346184680BD0008004880B584B0E6
:1035680000AF786018E0FFF7EDFF03461A467B6866
:103578001A70FCF785FEF8607B685B68FA68D31AF6
:10358800B3F57A7F08D9FFF7DDFF03461A467B6853
:103598001A707B68FA685A607B681B781846FFF7D0
:1035A800C1FF0346002BDED100BF00BF1037BD4668
:1035B80080BD80B582B000AF78607B68002B02D0F8
:1035C800786800F051FC00BF0837BD4680BDB0B533
:1035D8008AB000AFF860B9607A603B6097F8443011
:1035E80087F82630B7F84030BB84FB6B3B623B8FD3
:1035F800BB833B68BB617B687B61BB683B6107F150
:103608001003184600F00EF8FB681D4607F1100479
:103618000FCC0FC594E8030085E80300F868283745
:10362800BD46B0BD80B582B000AF78607B689B7D39
:10363800002B0CD13321786800F062F832217868C9
:1036480000F05EF82821786800F05AF803E0382185
:10365800786800F055F80121786800F051F80C21DD
:10366800786800F04DF80621786800F049F800BF46
:103678000837BD4680BD90B585B000AF7860396029
:103688000023FB730AE0FB7B3A6813441B78194656
:10369800786800F063F8FB7B0133FB73FC7B3868C8
:1036A800FCF78EFD03469C42EDD300BF00BF1437E4
:1036B800BD4690BD80B582B000AF78600B46FB7008
:1036C8001346BB70FB78074AD25CBB781344DBB265
:1036D800803BDBB21946786800F012F800BF083763
:1036E800BD4680BDE440000880B582B000AF786078
:1036F8000121786800F004F800BF0837BD4680BD96
:1037080080B582B000AF78600B46FB707B68986824
:103718007B689B8900221946FEF717FB7B689B7D17
:10372800002B11D1FB781B09DBB2042219467868FB
:1037380000F042F8FB7803F00F03DBB204221946CD
:10374800786800F039F805E0FB78082219467868AF
:1037580000F032F800BF0837BD4680BD80B582B0A2
:1037680000AF78600B46FB707B6898687B689B8924
:1037780001221946FEF7E9FA7B689B7D002B11D1DF
:10378800FB781B09DBB204221946786800F014F8AC
:10379800FB7803F00F03DBB204221946786800F0C7
:1037A8000BF805E0FB7808221946786800F004F861
:1037B80000BF0837BD4680BD80B584B000AF7860D3
:1037C8000B46FB701346BB700023FB7319E07B6844
:1037D8001A68FB7B9B00134418687B685A68FB7B5C
:1037E8005B0013441988FA78FB7B42FA03F3DBB2D7
:1037F80003F00103DBB21A46FEF7A7FAFB7B01339D
:10380800FB73FA7BBB789A42E1D37B6818697B68C3
:103818009B8A01221946FEF798FA0120FCF73AFD27
:103828007B6818697B689B8A00221946FEF78DFA27
:1038380000BF1037BD4680BD80B584B000AFF860CA
:10384800B9607A60F868FFF74FFF00220021F86836
:10385800FFF730FFB968F868FFF70DFF0022012174
:10386800F868FFF727FF7968F868FFF704FF00BFDB
:103878001037BD4680BD000080B582B000AF7860CB
:10388800012240210748FEF760FA7868FCF702FD3C
:10389800002240210348FEF758FA00BF0837BD460A
:1038A80080BD00BF0008004890B595B004AFFCF794
:1038B8008FFC00F08FF800F057F900F0E5F8374B6F
:1038C80007F120040FCB84E80F00354A07F11803ED
:1038D80092E8030083E80300384607F1180207F16D
:1038E800200100230393022302932E4B019301230B
:1038F80000932C4BFFF76BFE3B462B4A2B4918468F
:10390800FFF79AFF2A48FFF773FCF863F86BFFF795
:10391800AEFCF86BFFF7D5FCC820FFF7ADFF3B46C0
:10392800244A25491846FFF787FF2148FFF7D7FCA7
:10393800B863B86BFFF71AFDB86BFFF769FDC820CD
:10394800FFF79AFF3B461D4A1D491846FFF774FFCB
:10395800FFF76CFD7863786BFFF798FD786BFFF7DE
:10396800C0FDC820FFF788FF3B46164A164918468F
:10397800FFF762FFFFF7C3FD3863386BFFF7EEFD13
:10398800386BFFF716FEC820FFF776FF3B460F4A55
:103998000F491846FFF750FFFEE700BFAC4000088C
:1039A800BC400008000800483440000840400008B7
:1039B8009000002050400008604000086C4000085B
:1039C80074400008844000088C40000898400008B3
:1039D800A040000880B596B000AF07F13003282258
:1039E8000021184600F048FA07F11C0300221A606B
:1039F8005A609A60DA601A613B4600221A605A607F
:103A08009A60DA601A615A619A6102233B63012362
:103A18003B6410237B640223FB6400233B654FF463
:103A280000237B6507F130031846FEF7BFF903460C
:103A3800002B01D000F0E4F80F23FB6100233B6268
:103A480000237B620023BB620023FB6207F11C0397
:103A580000211846FFF7B2F80346002B01D000F00A
:103A6800CFF880233B604FF480733B613B46184698
:103A7800FFF788FA0346002B01D000F0C1F800BF19
:103A88005837BD4680BD000080B58AB000AF07F149
:103A98001C0300221A605A609A603B1D00221A60BB
:103AA8005A609A60DA601A615A612E4B4FF0A04250
:103AB8001A602C4B00225A602A4B00229A60294B2C
:103AC80000221A61274B00225A76264B002283F8DF
:103AD8002020244B0022DA62224B01229A62214BD9
:103AE8000022DA601F4B0122DA611E4B002283F8A4
:103AF80030201C4B04225A611A4B00221A76194BAB
:103B080000225A631748FCF705FC0346002B01D036
:103B180000F076F80023FB6107F11C0319461148F1
:103B2800FDF74CFC0346002B01D000F069F8012397
:103B38007B600123BB6000233B610023FB60002303
:103B48007B610023BB613B1D19460648FDF776F9EA
:103B58000346002B01D000F053F800BF2837BD46BC
:103B680080BD00BF9000002080B588B000AF07F18D
:103B78000C0300221A605A609A60DA601A611E4BC0
:103B88005B691D4A43F4002353611B4B5B6903F4D3
:103B98000023BB60BB68184B5B69174A43F40033CA
:103BA8005361154B5B6903F400337B607B6800222B
:103BB800FF211248FEF7C9F8FF23FB6001233B6190
:103BC80000237B610023BB6107F10C0319460B48F6
:103BD800FDF732FF4FF44073FB6000233B61012384
:103BE8007B6107F10C0319460448FDF725FF00BF68
:103BF8002037BD4680BD00BF0010024000080048C5
:103C080080B400AF00BFBD4680BC704780B483B0AD
:103C180000AF0E4B9B690D4A43F0010393610B4BB8
:103C28009B6903F001037B607B68084BDB69074AEB
:103C380043F08053D361054BDB6903F080533B604D
:103C48003B6800BF0C37BD4680BC7047001002407F
:103C580080B58AB000AF786007F1140300221A60BB
:103C68005A609A60DA601A617B681B68B3F1A04FEA
:103C78002CD1184B5B69174A43F080535361154B9D
:103C88005B6903F080533B613B69124B5B69114AE6
:103C980043F4003353610F4B5B6903F40033FB605B
:103CA800FB6801237B610323BB610023FB6107F1F0
:103CB800140319464FF09040FDF7BEFE0022002184
:103CC8001220FDF782FE1220FDF79BFE00BF283769
:103CD800BD4680BD0010024080B400AF00BFBD46A5
:103CE80080BC704780B400AFFEE780B400AFFEE749
:103CF80080B400AFFEE780B400AFFEE780B400AF49
:103D080000BFBD4680BC704780B400AF00BFBD4651
:103D180080BC704780B400AF00BFBD4680BC704710
:103D280080B500AFFCF79AFA00BF80BD80B500AF40
:103D38000248FCF73FFE00BF80BD00BF9000002096
:103D480080B584B000AF7860114B1B68002B02D19E
:103D58000F4B104A1A600E4B1B68FB600C4B1A681D
:103D68007B6813446A46934207D900F04BF8034630
:103D78000C221A604FF0FF3306E0054B1A687B6887
:103D88001344034A1360FB6818461037BD4680BDCC
:103D9800E00000200001002080B400AF034B4FF08A
:103DA80000629A6000BFBD4680BC704700ED00E02D
:103DB800DFF834D0002103E00C4B5B58435004314A
:103DC8000B480C4B42189A42F6D30B4A02E00023E8
:103DD80042F8043B094B9A42F9D3FFF7DDFF00F0A4
:103DE80017F8FFF761FDFEE70030002000410008EA
:103DF800000000207000002070000020FC0000205F
:103E0800FEE70000014B1868704700BF0C00002057
:103E180070B50D4D0D4C641BA4100026A64209D1A7
:103E28000B4D0C4C00F0F6F8641BA4100026A642BB
:103E380005D170BD55F8043B98470136EEE755F8B3
:103E4800043B98470136F2E7F8400008F8400008BC
:103E5800F8400008FC400008024B0146186800F0D2
:103E680061B800BF0C000020024B0146186800F042
:103E78000BB800BF0C00002002440346934200D157
:103E8800704703F8011BF9E738B50546002945D006
:103E980051F8043C0C1F002BB8BFE41800F0ACF834
:103EA8001F4A1368104633B9636014602846BDE89A
:103EB800384000F0A7B8A3420BD921686218934292
:103EC80004BF1A685B68636004BF5218226004600C
:103ED800ECE71A465B680BB1A342FAD9116850188F
:103EE800A0420BD120680144501883421160DDD1F3
:103EF80018685B68536001441160D7E702D90C2346
:103F08002B60D3E7206821188B4204BF19685B68CF
:103F1800636004BF091821605460C7E738BD00BF5B
:103F2800E4000020F8B5CD1C25F0030508350C2D5C
:103F380038BF0C25002D064601DBA94203D90C2306
:103F480033600020F8BD00F057F821490A6814468C
:103F58009CB9204F3B6823B92146304600F03CF815
:103F680038602946304600F037F8431C23D10C232B
:103F78003360304600F046F8E3E723685B1B17D44C
:103F88000B2B03D923601C44256004E06368A2421C
:103F98000CBF0B605360304600F034F804F10B009E
:103FA800231D20F00700C21ACCD01B1AA350C9E762
:103FB80022466468CCE7C41C24F00304A042E3D082
:103FC800211A304600F008F80130DDD1CFE700BFF4
:103FD800E4000020E800002038B5064D0023044620
:103FE80008462B60FFF7ACFE431C02D12B6803B1D7
:103FF800236038BDEC000020014800F009B800BF7C
:10400800F4000020014800F004B800BFF4000020CC
:1040180070477047F8B500BFF8BC08BC9E467047AB
:0C402800F8B500BFF8BC08BC9E4670470D
:10403400646961676E6F7374796B690050727A7921
:10404400676F746F77616E7920646F0070727A6540
:10405400642073776961746C656D00004368726FE6
:104064006E206C61736572006261746572696900C7
:104074004E69736B6920706F7A696F6D0000000080
:104084003078373339313400426C61642043505501
:1040940000000000707564656C6B6F005A616A7291
:1040A4007A796A20706F64000008004800080048AC
:1040B4000008004800080048040008001000200020
:1040C40002030405060708090A0B0C0D0E0F101055
:1040D4000102030405060708090A0B0C0D0E0F1054
:1040E4000040105000000000000000000102030422
:0440F40006070809AA
:0440F800AD0100080E
:0440FC00890100082E
:10410000100000000100000000127A0010000020E2
:10411000000000000000000000000000000000009F
:10412000000000000000000000000000000000008F
:10413000000000000000000000000000000000007F
:10414000000000000000000000000000000000006F
:10415000000000000000000000000000000000005F
:10416000000000000000000000000000000000004F
:0400000508003DB9F9
:00000001FF
